:10000000020459008F828E83E0540100000070F8D2
:100010002278FFE4F6D8FD0204B7BB010689828A84
:1000200083E0225002E722BBFE02E32289828A8318
:10003000E49322BB010689828A83F0225002F722D0
:10004000BBFE01F322C5F0F8A3E028F0C5F0F8E507
:1000500082158270021583E038F022EF2BFFEE3A12
:10006000FEED39FDEC38FC22E88FF0A4CC8BF0A437
:100070002CFCE98EF0A42CFC8AF0EDA42CFCEA8E7A
:10008000F0A4CDA8F08BF0A42DCC3825F0FDE98F9D
:10009000F0A42CCD35F0FCEB8EF0A4FEA9F0EB8F94
:1000A000F0A4CFC5F02ECD39FEE43CFCEAA42DCE61
:1000B00035F0FDE43CFC2275F008758200EF2FFF5F
:1000C000EE33FECD33CDCC33CCC58233C5829BED30
:1000D0009AEC99E58298400CF582EE9BFEED9AFD34
:1000E000EC99FC0FD5F0D6E4CEFBE4CDFAE4CCF9E4
:1000F000A88222B800C1B90059BA002DEC8BF08457
:10010000CFCECDFCE5F0CBF97818EF2FFFEE33FE24
:10011000ED33FDEC33FCEB33FB10D703994004EBDC
:1001200099FB0FD8E5E4F9FA227818EF2FFFEE33A8
:10013000FEED33FDEC33FCC933C910D7059BE99ABA
:100140004007EC9BFCE99AF90FD8E0E4C9FAE4CC4B
:10015000FB2275F010EF2FFFEE33FEED33FDCC33B5
:10016000CCC833C810D7079BEC9AE899400AED9B9E
:10017000FDEC9AFCE899F80FD5F0DAE4CDFBE4CC7D
:10018000FAE4C8F922EF4BFFEE4AFEED49FDEC48D8
:10019000FC22EB9FF5F0EA9E42F0E99D42F0E89CDC
:1001A00045F022E8600FECC313FCED13FDEE13FEE7
:1001B000EF13FFD8F122E8600FEFC333FFEE33FEF9
:1001C000ED33FDEC33FCD8F122BB010789828A8331
:1001D0000202035005E9F80202BCBBFE05E9F80281
:1001E00002C889828A830202D4BB010789828A837A
:1001F00002021B5005E9F80202E4BBFE05E9F80221
:1002000002F022E0FCA3E0FDA3E0FEA3E0FF22E079
:10021000F8A3E0F9A3E0FAA3E0FB22ECF0A3EDF0F1
:10022000A3EEF0A3EFF022E0FBA3E0FAA3E0F922B3
:10023000EBF0A3EAF0A3E9F022E493FB740193FA54
:10024000740293F922D083D082F8E493701274017F
:1002500093700DA3A393F8740193F5828883E473DC
:100260007402936860EFA3A3A380DFE50C2582F5F9
:1002700082E50B3583F583B50B0485820C2210AF24
:100280000685820CF50B2285820CF50BD2AF22EC91
:100290008EF0A4CCC5F0CCCDF8EFA4CEC5F02DFDEA
:1002A000E43CFCE8A42EC8C5F03DFDE43CFCEFA412
:1002B000FFE5F028FEE43DFDE43CFC22E6FC08E618
:1002C000FD08E6FE08E6FF22E2FC08E2FD08E2FE89
:1002D00008E2FF22E493FC740193FD740293FE7420
:1002E0000393FF22ECF608EDF608EEF608EFF6228F
:1002F000ECF208EDF208EEF208EFF2227B007A460B
:1003000079E8120BA3EF4405FD7B007A4679E812E9
:100310000BAF750A00E50AC39408503AAF0AEF75AF
:10032000F005A424ECF582E4340BF583AF82AE83B0
:100330008E088F09AE08AF098F828E83120239AE04
:1003400008AF098F828E83740393FC740493FD12AB
:100350000A8D050A80BF7B087A0079001209CA7BE2
:10036000017A507903120BA3EF4402FD7B017A500E
:100370007903120BAF7B017A507913120BA3EF4470
:1003800002FD7B017A507913120BAF9043A0E0FF7E
:10039000EF4440FF9043A0EFF09043C2E0FFEF44F2
:1003A00010FF9043C2EFF07B087A017908C003C0C8
:1003B00002C0017B007A51790290005E120230D0B7
:1003C00001D002D0037F087E001208837B087A01E7
:1003D0007910C003C002C0017B007A5179129000ED
:1003E0005E120230D001D002D0037F087E001208D6
:1003F000839044F47401F0904322E0FFEF4408FF3F
:10040000904322EFF09046ECE0FFEFC394055006D6
:10041000904689743AF090480074F1F012054690C5
:10042000480074B1F012084D7B007A4379A0C003F4
:10043000C002C0017B007A4379B090005E120230A6
:10044000D001D002D0037F0E7E001208839043B00B
:10045000E0FFEF54FDFFEFF0227593007800758305
:10046000467582E8E04401F0009046ECE0F99046E1
:10047000FAE0FAB903225420B40012B8001AEA9044
:100480001FFFF07401901FFEF09046F6F0901FFEE3
:10049000E06005901FFFE0FA90480074C0F075819D
:1004A0000C90000078007920E4F0A3D8FCD9FAEA97
:1004B00090004DF0020011750B1F750CFD1207C561
:1004C0001202FC020501020A71E493A3F8E493A36B
:1004D0004003F68001F208DFF48029E493A3F85486
:1004E00007240CC8C333C4540F4420C8834004F409
:1004F00056800146F6DFE4800B010204081020401C
:10050000809008B7E47E019360BCA3FF543F30E5C0
:1005100009541FFEE493A360010ECF54C025E06090
:10052000A840B8E493A3FAE493A3F8E493A3C8C55E
:1005300082C8CAC583CAF0A3C8C582C8CAC583CA4F
:10054000DFE9DEE780BE9043007402F09040007463
:1005500008F09042007403F07B0C7A017908120BCA
:10056000A39046A1EFF07B007A4279227D087C00BF
:10057000120B6F7B007A4279207D517C12120B6F37
:1005800090005DE4F07F197E007D007C00900059B2
:1005900012021B900059120203D3EF9400EE940054
:1005A000404E90005DE0FFEF64036044904225E020
:1005B000FFEF5401FF7E0090005DE0FEEE25E0FEBF
:1005C000EE4FFFEF5403FF90005DEFF07FE07E0100
:1005D0007D007C001209009000591202037BFF7A13
:1005E000FF79FF78FF12005B90005912021B80A375
:1005F000900059120203EF4E70057F03120B3B7BF4
:10060000007A4079047D007C01120B6F90400474E5
:1006100007F0904006E4F09040087448F0904004E1
:10062000E4F09040017402F022C0E0C0F0C083C04A
:1006300082C085C084C086758600C093759300C053
:10064000D075D000C000C001C002C003C004C00506
:10065000C006C007900066E0FFEF7017120B97EF1F
:1006600064017067900067E4F0A3E4F07F01120773
:100670006A8058900066E0FFEFB40133120B97EFE9
:10068000B40116900067E4F0A37401F07FB07E31EE
:100690007D007C00120ABC8032900067E4F0A374F5
:1006A00001F07FC07E007D037C00120ABC801C909C
:1006B0000066E0FFEFB40213120B97EF700D90008D
:1006C00067E4F0A3E4F07F0112076AD007D006D0F8
:1006D00005D004D003D002D001D000D0D0D093D028
:1006E00086D084D085D082D083D0F0D0E032C0E0F4
:1006F000C0F0C083C082C085C084C086758600C03B
:1007000093759300C0D075D000C000C001C002C076
:1007100003C004C005C006C007900067E0FEA3E068
:10072000FFEF4E6022120B97EF700F900067E4F01E
:10073000A3E4F07F0012076A800D900067E4F0A345
:10074000E4F07F0212076AD007D006D005D004D0AB
:1007500003D002D001D000D0D0D093D086D084D0A6
:1007600085D082D083D0F0D0E032900056EFF09068
:100770000056E0FFEF70117F0112099C7F00120903
:100780006C7F0012093B8032900056E0FFEFB4010D
:10079000117F0012099C7F0112096C7F0012093B36
:1007A0008018900056E0FFEFB4020F7F0012099C02
:1007B0007F0012096C7F0112093B900056E0FF9008
:1007C0000066EFF022900059E4F0900059E0FFEF4E
:1007D000D3941F503D900059E0FF7E02EF8EF0A4AD
:1007E000FFAEF0EF2400FFEE3444FEAA06A9077B1B
:1007F00001C003C002C0017BFF7A0B79E7AC02ADF8
:1008000001D001D002D003120B71900059E004F026
:1008100080B8227FFF7EFF7DFF7C00120AA67FFF4B
:100820007EFF7DFF7C00120ABC120B13900059EF73
:10083000F0906596E0FFEF4410FFEFF0900059E074
:10084000FF1208E8120B7E7F01120B5F227B0C7AED
:100850000179CF120BA3900059EFF0900059E0FFFF
:10086000EF5407FF90586EEFF0900059E0FFEFC48F
:10087000540FFFEF540FFF90586FEFF090587674BD
:1008800044F022758600EF4E6027EF60010E7593ED
:100890000090005EE0F595A3E0F585A3E0F5848B7C
:1008A000938A838982E0A30586F0A31586DFF6DEAE
:1008B000F4E4F593F59522410066004200670000DC
:1008C00041006900440049016E36004400440000C4
:1008D0005DC04100481844004E2EE0000043006116
:1008E00000000041006A0000EF54016004D2AF80B4
:1008F00002C2AFEF5402FF9044F4E054FD4FF022E7
:10090000EC4D4E700D78FCEF24E950032840FD2299
:1009100000007BF178DA0000EF28FF78FFEE38FE68
:10092000ED38FDEC38FC50E7EF2BFFEE38FEED38EC
:10093000FDEC38FC40F22205020304900057EFF072
:10094000905100E0FFEF54F7FF900058EFF0900057
:1009500057E0FFEF33333354F8FFEF5408FF9000B4
:1009600058E0FEEF4EFF905100EFF022900057EF5D
:10097000F0905100E0FFEF54FBFF900058EFF09033
:100980000057E0FFEF25E025E0FFEF5404FF900063
:1009900058E0FEEF4EFF905100EFF022900057EF2D
:1009A000F0905100E0FFEF54FDFF900058EFF09001
:1009B0000057E0FFEF25E0FFEF5402FF900058E002
:1009C000FEEF4EFF905100EFF022ACEAADA08B930A
:1009D0008A838982E0F96017A3E0F5EAA3E0F5A035
:1009E000A3E060F4FAA3E0F8A3E0F2DAF8D9E98D25
:1009F000A08CEAE4F59322900059EEF0A3EFF012F8
:100A00000BCC900059E0FEA3E0FF120A357F0712DD
:100A10000AD2120BC522900059EEF0A3EFF0120B90
:100A2000DA900059E0FEA3E0FF120A537F07120A92
:100A3000E8120BD32290005BEEF0A3EFF07B027A7A
:100A400044790890005BE0FEA3E0FFAD07AC06121E
:100A50000B712290005BEEF0A3EFF07B027A4479F9
:100A60000090005BE0FEA3E0FFAD07AC06120B7147
:100A700022D2AF9044F474FDF07E067F291209F76C
:100A80007E067FEE120A16120AFE80FE22EC4D60F0
:100A900011ED60010C8B938A838982E4F0A3DDFC65
:100AA000DCFA7593002290005A12021B7B027A65D1
:100AB000792490005A120203120B4F2290005A120E
:100AC000021B7B027A65790490005A120203120B12
:100AD0004F2290005BEFF090005BE0FFEFC43354D7
:100AE000E0FF904484EFF02290005BEFF090005B19
:100AF000E0FFEFC43354E0FF904480EFF022900019
:100B000069E0FFEF70091208139000697401F01298
:100B10000B8B229044F4E0F84402F0E85402FF10FA
:100B2000AF012274014FFF228B938A838982E0FFF9
:100B3000A3E0FEA3E0FDE4FCF5932290005EEFF05D
:100B400090005EE0FF90005EEFF080FE228B938AC3
:100B5000838982EFF0A3EEF0A3EDF075930022906D
:100B6000005AEFF090005AE0FF906586EFF0228B7C
:100B7000938A838982EDF0A3ECF075930022120B27
:100B8000E1EF30E305120BBB80F422906574E0FFC7
:100B9000EF4480FFEFF022905101E0FFEF5401FF9E
:100BA0007E00228B938A838982E0759300FF228BDB
:100BB000938A838982EDF0759300227B027A6579AE
:100BC00044120B2A229044C07410F0229044C8743E
:100BD00010F0229044C07401F0229044C87401F0D7
:100BE00022906566E0FF2280FE3232320051200002
:100BF000500051C000100051F00010010000100022
:100C000001140008000140000A00014C000200012C
:040C10005000002070
:00000001FF
