:400000000080002011000000750500007505000008B5044B1A6803F53F5302331A6000F0C9FA00BFFA46004010B5054C237833B9044B13B10448AFF300800123237010BDC0
:400040006881FF1F00000000CC210000084B10B51BB108490848AFF300800848036803B910BD074B002BFBD0BDE81040184700BF000000006C81FF1FCC210000C880FF1FE8
:400080000000000008B500F063F800F0C1F801F02FFE08BD08B500F06BF801F045FE08BD08B500F0E3F801F0EFFE08BD08B562B6114801F09DFE114801F0C2FE01F070FE55
:4000C0000F4801F045FF01F01BFF0121002000F071FC00F0A7FC0028FBD000F0C1FD094800F00AFE00F06CFE0028FBD000F074FE00F002F9F6E700BF8500000095000000FD
:40010000A1000000D02100000E4B1B78CBB910B50D4A136898400D490C7820430870013B1360002B0CDA01F0F1FD084C207800F07F0000F031FE0722034B1A6000232370D9
:4001400010BD70478481FF1FCC80FF1F8581FF1F08B501F0C7FD50B101F0D8FD46F2207001F0F4FD01F01CFE0120FFF7CDFF08BD08B50020FFF7C8FF08BD00BF10B5044687
:4001800048B9012000F070FA002000F079FA002000F082FA34E0012811D1002000F064FA012000F06DFA002000F076FA01F05EFE43F2B01001F07AFE01F0A2FE20E00228C9
:4001C00010D1002000F050FA012000F059FA002000F062FA01F04AFE0B4801F067FE01F08FFE0DE003280BD1002000F03DFA002000F046FA012000F04FFA0122034B1A70B4
:40020000024B5C7010BD00BFC00003008881FF1F08B5154B5B7833B901F064FD012802D1FFF7ACFF08BD104B5B78012B06D101F059FD18B90220FFF7A1FF08BD0A4B5B78B1
:40024000022B06D101F04EFD012802D1FFF796FF08BD054B5B78032B05D101F043FD10B90220FFF78BFF08BD8881FF1F08B5074B5B78022B03D10020FFF780FF08BD012BDA
:4002800002D10320FFF77AFF08BD00BF8881FF1F2DE9F04180460F46164B5B78002BFBD10026144B1E701DE018F8065045F08005072414E00F4B1B78CBB945FA04F000F0BE
:4002C000010001F003FD4FF4FA7000F009FA002001F0FCFC4FF4FA7000F002FA013C002CE8DA0136BE42DFDB0020BDE8F0810120BDE8F0818881FF1F10B50D2821D11648D0
:4003000000F0FAFC0122154B1A700DE001F0ACFE134B83FB0032C317C3EBA2134FF47A7202FB130000F0C6F90E4841680830FFF7AFFF0028EAD10023084A1370094A53604D
:4003400010BD044600F028FD064A5368591C516013441C7210BD00BFE02100008481FF1FD34D62108881FF1FFEE700BFF0B40022174611E050F82760F3B226F0FF0608E0A3
:4003800001EB420511F812406D78A5550132013BDBB2002BF4D10137192FEBD9F0BC7047064B1B78DBB203F00701054A11701B09013213704422034B1A707047CF01004919
:4003C0006E5800407658004008B50A46002101F042FE08BD38B506221E4B1A705222A3F580731A701C4B1B78DBB21C4A13704FF4E1621B4B1A8041F25122023B1A8000249D
:4004000019250CE0174B1B7803F0010343EA440404F003044FF4F07001F0AAFD013D0DB1032CEFD115B90320FFF79EFF0E4A4FF4807313800723137000230C490B70482063
:40044000023108701370053213700222084B1A7038BD00BF004300400F010049A1460040224200402542004004400040064000400140004008B501F0E3FD08BD38B572B69E
:400480002C4A137843F00403137000240CE02A4D630019194A0011462A44084691882858FFF792FF0134E4B2072CF0D923494FF09040FFF75BFF224A137843F002031370A1
:4004C0001032137843F0020313701E4C237843F040032370A2F58632513A137843F010031370082218491948FFF7C4FF0A2218491848FFF7BFFF082217491848FFF7BAFF59
:40050000082217491748FFF7B5FF174A137843F008031370154D01232B70FFF75BFF81232B70FFF73DFF0E2221461148FFF7A2FF38BD00BFE8460040E4210000680000483B
:4005400003500140A0430040B002004802510040B8020048F0510040C402004812510040CC020048325100402243004000480040B043004008B501F037FD03680C2B00D175
:40058000FEE7FEE708B5094B1A681044084BC31A802B02DC054B186005E001F025FD0C2303604FF0FF32104608BD00BFD080FF1FE082FF1F08B5104E104D16E029686B6875
:4005C000AC68002204E051F8040B43F8040B0432A242F8D1E868002203E0002143F8041B04328242F9D11035013E002EE6D101F001FDFFF75BFDFEE701000000AC2300006D
:4006000008B5104A104B1A60104A136843F40073136000230AE0032B03D80D4A52F8231000E00C490C4A42F8231001332F2BF2D90A4B1A780A4B1A70074A0A4B1A60FFF7C5
:400640001DFF08BD0004FA050CED00E014ED00E000000000750500000080FF1FBC760040C080FF1F08ED00E0044A137803F07F03C001C0B218431070704700BF00510040BC
:40068000044A137803F0BF03800100F0400018431070704700510040044A137803F0DF03400100F020001843107070470051004001BE704710B5044605E0084B186801F088
:4006C00057FCA4F50044B4F5004FF6D8034B586800FB04F001F04CFC10BD00BFD480FF1F08B5034B1B7A00FB03F001F041FC08BDD480FF1F70B504460E46074B1D681F28FC
:4007000002D90020FFF7D4FF04F01F04103455F8240045F8246070BD08ED00E038B504460D46072902D90020FFF7C2FF1F2C02D90020FFF7BDFF04F01F0000F1604000F569
:4007400064406D01EDB2057038BD00BF134B1B78DBB20360124A127843EA02230360114A127843EA024303600F4A127843EA026303600E4B1B78DBB243600D4A127843EA67
:40078000022343600B4A127843EA024343600A4A127843EA02634360704700BF0301004904010049EC4600400201004901010049000100490501004906010049F8B501F0C9
:4007C000DFFB0646404A137843F0010313701032137843F00103137001273C4B1F700225943B1D7002F5E2521B32137803F07F0313700020FFF774FF354C237803F0F9032D
:400800002370344A137803F0DF03137023783B4323703846FFF764FF2820FFF761FF2E4B1A7802F07F021A701A7802F0BF021A7023782B4323702846FFF752FF237843F0AD
:40084000040323700023254A137001321370304601F09AFB07211720FFF760FF20491720FFF748FF07211820FFF758FF1D491820FFF740FF07211520FFF750FF1A491520CC
:40088000FFF738FF07212846FFF748FF17492846FFF730FF07210320FFF740FF14490320FFF728FF07210420FFF738FF11490420FFF720FF07210C20FFF730FF0E490C2020
:4008C000FFF718FFF8BD00BFA54300409D6000409443004012600040F851004084600040691300005111000065130000C5120000F5120000291300007113000008B5214B7F
:4009000018700023204A1370204A1370204A1370204A1370204A1370204A1370204A1370204B4FF400021A604FF080721A604FF400121A6004221A6008221A6010221A60FD
:4009400011B1012906D00BE0174A137803F0FE0313700AE0144A137843F00103137004E0114A137843F00103137003220F4B1A708022203B1A70012001F0FAFA04220C4B43
:400980001A7008BD1D82FF1F2082FF1F3C82FF1F3F82FF1F3482FF1F3E82FF1F4182FF1F1C82FF1F00E100E009600040286000401260004038B504460D46064B1B7823B933
:4009C000FFF7FCFE0122034B1A7029462046FFF795FF38BDF481FF1F00230A4A13700A4A13700A4A13700A4A13700A4A13700A4A13700A4A13700322094B1A708022203B21
:400A00001A7070472082FF1F3C82FF1F3F82FF1F3482FF1F3E82FF1F4182FF1F1C82FF1F28600040014B1878704700BF3F82FF1F00EB40008300024A13445878704700BF1B
:400A40004482FF1F431EDBB2072B0BD8064B00011A18185C00F00F00537843EA0020023880B2704700207047FC5F0040431EDBB2072B3CD8F0B4074600EB4004A3001C4C8C
:400A80002344DB889BB2C3F500739A4208D900EB400293002344DA8892B2C2F5007292B200EB4004A300124C2344DB7843EA1223104D04012E192B55D3B2737039B909E045
:400AC000CE5C3D010C4C665501339BB200E000239A42F5D8420002449300054A134400225A705A79D2B20001044B1A54F0BC70474482FF1FFC5F004078600040FE5F0040F5
:400B0000431EDBB2072B0BD8420002449300054A134400225A705A79D2B20001024B1A54704700BF4482FF1FFE5F004070B5D9B1054614460E46C8B1082819D8FFF782FF42
:400B4000A04203D22846FFF77DFF0446002305E02901094A525CF25401339BB2A342F7D32846FFF7CDFF04E0002402E0002400E00024204670BD00BF7860004002460020D7
:400B800001E0013080B2135C002BFAD1704700BF10B4FF2400230EE0094AD25C02EB42029100084A11448A7AD2B2824201D11C4602230133DBB2012BEED9204610BC7047F2
:400BC0000C82FF1F4482FF1F10B5204C2079FFF7DFFF237813F0800F0ED06378DBB2212B2FD11B4B07221A80C0EBC000194A1044586000F01BFB10BD144B5B78DBB2202B28
:400C000002D0222B10D01EE0114A07231380C0EBC00310490B4453600F4A135C43F00103135400F02BFB10BD084B9B780B4A22F81030094A135C43F00203135400F0B4F97A
:400C400010BD002010BD002010BD00BF006000402882FF1FE480FF1F0482FF1F1882FF1F10B500241F4B1C701F4B1C705C700AE01E4B185DC0B2431EDBB2072B01D8FFF7FE
:400C80003FFF0134E4B2012CF2D9194B1B7813F0FF0F1AD0154B1B7813F0FF0F17D0154B1B7813F0FF0F14D0114B1B78DBB2082B11D80E4B1B78DBB2082B0ED80D4B1B7859
:400CC000DBB2082B0BD8002010BD012010BD012010BD012010BD012010BD012010BD012010BD00BFF581FF1F0482FF1F1082FF1F0882FF1F0C82FF1F2DE9F8438046234B50
:400D00001B78234AD65CF6B2FFF738FF05460027344606EB460293001E4A13441B899BB29D4209D906EB460293001A4A1344B3F808901FFA89F900E0A9464A4608EB0701C4
:400D40003046FFF793FEC9EB0505ADB245B906EB460293000F4A13441B899BB2994510D14F44BFB204EB440293000A4A13445B7813F0FF0FF6D025B9002211463046FFF74B
:400D800075FE002DC4D1BDE8F88300BFF581FF1F0882FF1F4482FF1F00B583B002A901F8010D054B1B78054AD05C0122FFF75EFE03B05DF804FB00BFF581FF1F0882FF1F90
:400DC00008B5034B1B78034AD05CFFF731FE08BDF581FF1F1082FF1F00B583B0064B1B78064AD05C01220DF10701FFF79FFE9DF8070003B05DF804FBF581FF1F1082FF1FC3
:400E0000C37803F0030390F9020000280FDA032B06D002F001030B48C15442F001020EE0C2F380030848C15442F0040207E0032B05D0C2F340030548C15442F002021046B8
:400E4000704700BF0882FF1F0C82FF1F1082FF1F1D4B19781D4A13889BB20B449BB2138000220FE01A494B681B78DBB2194883544B6801334B600132D2B20B889BB2013B9D
:400E80009BB20B80124B1B889BB20BB1072AE9D90D4B1B78DBB2082B00D05AB10E490B7883F080030B700F210C4B197002210C4B197004E0022309490B7009490B70094B83
:400EC0001A70014B1A7070471C82FF1F1E82FF1F2882FF1F00600040B282FF1F3D82FF1F2082FF1F4082FF1F0222074B1A708022064B1A700F22064B1A700023054A1370AC
:400F0000054A1370012070472082FF1FB282FF1F3D82FF1F1C82FF1F4082FF1F08B5FFF797FF08BD10B4194B197801F00F010239C9B2174A13889BB20B449BB21380002066
:400F400011E0144A5468144B1B5CDBB223705368013353600130C0B20139C9B213889BB2013B9BB213800B4B1B889BB20BB10029E7D10A4B19700A4A137883F08003137059
:400F80000B22084B1A7010BC704700BF296000401E82FF1F2882FF1F006000404082FF1FB282FF1F3D82FF1F0623064A1370064A13708022054B1A700022054B1A7001207F
:400FC000704700BF2082FF1F3D82FF1FB282FF1F4082FF1F064B9B6843B1054B9A6810709A6804490988518000229A60704700BF2882FF1F1E82FF1F08B5134B1A78D2B298
:401000001A701B78DBB213F0800F02D00F4A137008BD0220FFF7DEFF0D4B1B7803F06003202B05D0402B06D043B900F091FC06E000F0AEFF03E000F035FE00E0002010B99F
:401040000322024B1A7008BD286000403D82FF1F0060004008B5094B1978094A13889BB20B449BB213800022064B1A700120FFF7B1FF0322044B1A7008BD00BF1C82FF1F5C
:401080001E82FF1F2082FF1F3D82FF1F08B50B4B1B78DBB2042B06D0062B07D0022B0BD1FFF7D8FF08BDFFF73DFF08BD0320FFF791FF0322024B1A7008BD00BF2082FF1F1A
:4010C0003D82FF1F08B50022044B1A700120FFF781FF0322024B1A7008BD00BF2082FF1F3D82FF1F08B50B4B1B7813F0FF0F07D0084A137843F0800307490B700023137015
:401100000022064B1A700120FFF764FF0322044B1A7008BD3E82FF1F086000402082FF1F3D82FF1F08B5094B1B78DBB2042B06D0062B07D0022B07D1FFF7F0FE08BDFFF770
:40114000C1FF08BDFFF7CEFF08BD00BF2082FF1F08B5284B1B78DBB213F0100F48D013F0800F0CD003F00F03012B16D1FFF744FF214B1B7813F0800F11D1012312E013F00E
:40118000400F03D0FFF7CEFF01230BE013F0200F07D0FFF77BFF012304E0002302E0002300E0002323B3134B1B7813F0800F1FD1124B1B78124A12781343124A13701278B1
:4011C000D2B2934214D10C4B1B78DBB2094A127812F0800F07D1084B1B78DBB2054A1370137803F00F03044A1278D2B29342EAD108BD00BF286000403D82FF1FB282FF1FB8
:401200004082FF1F296000400022064B1A80064B9B682BB1044A916800230B7092685380704700BF1E82FF1F2882FF1F08B50F4B1B889BB213B9FFF757FE15E002220C4B8C
:401240001A7000220B4B1A70FFF7DEFF0A4AD179937943EA0123054A128892B2934201D2024A1380FFF7F4FD012008BD2882FF1F2082FF1FB282FF1F0060004008B5042236
:401280000B4B1A7080220B4B1A70FFF7BDFF0A4AD179937943EA0123084A128892B2934201D2064A13800B22054B1A70012008BD2082FF1FB282FF1F006000402882FF1FFD
:4012C0003D82FF1F0122094B1A700F3B9B7C084B1B7B03F00303934204D0054AD37B83F08003D3730122024B5A7370470B6000404482FF1F02220A4B1A700F3B93F822309E
:40130000084B1B7E03F00303012B04D0054AD37E83F08003D3760122024B5A76704700BF0B6000404482FF1F04220C4B1A700F3B93F832300A4B93F8243003F00303012B0D
:4013400006D0074A92F8273083F0800382F827300122034B83F82520704700BF0B6000404482FF1F704700BF08B5FFF735FB08BD08B500F0A3FC08BD70B588B0054603ACE2
:40138000174E0FCE0FC43368237035B322232B7003236B7001A8FFF7D9F9002402231AE008AA224412F81C2C08A901EB121111F8141CE954581C00212954981C02F00F0204
:4013C00008AE324412F8142C2A54DA1CA9540134E4B20433DBB2212BE2D908B070BD00BF1422000010B401233EE019461A010C242148845403EB4300820020480244527979
:4014000012F0FF0F13D003EB430082001B480244127912F0800F04D01801194A024494700AE01801164A02440820907004E01801134A0244802090704800084482000F4829
:401440000244D488E4B208010B4901448C71D088C0F30720C871D088C0B20871D288C2F307224A710133DBB2082BBED9FF22054B1A7010BC704700BF706000404482FF1F38
:40148000FC5F00400A600040074B1A78074B03EBC2035B681A7C824204D9C0001030184440687047002070471D82FF1F28220000F8B5404B1B7813F0FF0F79D03D4B18782E
:4014C0000138C0B2FFF7E0FF047AC2683A4B1878C0B200236AE01178884264D13749095CC9B25578A9425ED1917801F07F01D67806F00306DFF8C8E04D000D44AF000EEB75
:4015000007054FF0000C85F803C092F802C085F804C092F803C00EF807C097882F8192F90250002D0DDA012E01D1072700E00D274E000E44B500224E35446F7101266E7047
:401540000CE0012E01D1052700E009274E000E44B5001B4E35446F7100266E70DFF868E00F010EEB07060125B57001FA05F529448D00134929440D89C5F307250EF8075018
:401580000D89EDB27570CE88F6B20E4D3D44AE71CE88C6F30726EE71CE88F6B22E71C988C1F30721697108320133DBB2A34292D3F8BD00BF3F82FF1F3482FF1FB082FF1F1D
:4015C0004482FF1F70600040FC5F0040034B1A78034B03EBC2035868704700BF1D82FF1F2822000008B5084B18780138C0B2FFF74BFF30B142681279023200EBC2035868F9
:4016000008BD002008BD00BF3F82FF1F2DE9F047002310E0724D5900CA189600AC190022AA55A270E2702281A272627034462C4462710133DBB2082BECD940B90AE0002224
:401640006849CA546849CA540133DBB200E00023012BF4D9654B1B7813F0FF0F00F0BD80624B18780138C0B2FFF70EFF80464368DB7913F0400F05D05D4A137843F001034E
:40168000137004E05A4A137803F0FE03137098F808704FF0000A01266FE0D8F80C50002467E0AB7803F07F039E425FD1314606EB460083004A4803441B899BB2A888834227
:4016C00006D206EB460E4FEA8E03454A134418812B784448C35CDBB26878834246D195F802C0DFF8FCE04B000B4498000EEB000383F804C0EB780EF80030EB7803F0030389
:4017000095F90200002813DA012B02D14FF0070901E04FF00D09DFF8C8E04B0003EB010C4FEA8C00704480F805900121417012E0012B02D14FF0050901E04FF00909DFF81B
:40174000A0E04B0003EB010C4FEA8C00704480F8059000214170AB790A2B01D0022B05D1524631462846FFF74BFB824608350134E4B2BC4295D30136F6B2082E8DD9D8F8E4
:401780000C0000220CE0837803F07F0310F8084B03EB43039900124B19448C720132D2B2BA42F0D3FFF71EFF124B1860002301210FE00B4D4A00501884002C44E380228921
:4017C00092B213449BB203F0010213449BB20131C9B20829EDD9FFF705FEBDE8F08700BF4482FF1FB082FF1F2482FF1F3F82FF1F4182FF1F3882FF1F08B5154B1B7903F0BB
:401800007F035A1ED2B2072A20D8590019448A0010490A44917841F0010191700021D170517841F002015170127912F0800F05D01B01094A1A448D23937004E01B01064AFC
:401840001A4489239370FFF7AFFB08BD002008BD006000404482FF1FFC5F0040264B1B7903F07F035A1ED2B2072A43D810B5590019448A0021490A44917801F0FE01917079
:401880000021D17019017F241D484454517801F0FD015170127912F0800F14D003EB43018A0016490A445278D2B2012A05D11B0102461A440C23937019E01B01104A1A441A
:4018C0000D23937013E003EB43018A000B490A445278D2B2012A05D11B01094A1A440823937004E01B01064A1A4409239370FFF75BFB10BD00207047006000404482FF1FC9
:40190000FC5F004010B50E4B1C79E4B20D4B18780138C0B2FFF7B8FD43681B799C4201D9022C0AD8084A135DDBB208490B55044B9B78DBB21355012010BD002010BD00BF8D
:40194000006000403F82FF1FB082FF1F2482FF1F10B59C4B1B78DBB200219B4A118013F0800F00F0AD80974A5278D2B20A2A00F27481DFE812F0690072017201720172017A
:4019800072010B007201920072019A008D4BDB78DBB2012B09D1FFF719FE42688A4B5A6012221A80FFF742FC10BD864BDB78DBB2022B13D1834B9878FFF766FD002800F0B3
:4019C0004E814268804B5A605A68D1785A68927842EA01221A80FFF729FC10BD794BDB78DBB2032B05D02CE00A7811440133DBB201E000237549734A9278D2B2934203D23F
:401A00000A7812F0FF0FEFD16E4B9B7813F0FF0F0BD06C4B9B78DBB26D4A127C934204D16C4C2046FFF7A8FC21460B7813F0FF0F00F017810B78644A13805160FFF7F6FBBF
:401A400010BD00F0A5FA10BD13F0030317D0022B40F009815C490B805A4B1B7903F07F0303EB43039A005C4B1A449278D2B25B4B1A7000225A704B60FFF7D8FB10BD52492F
:401A800002230B80564B1A78D2B2544B1A7000225A704B60FFF7CAFB10BD4B4B01221A80504A5A60FFF7C2FB10BD474A01231380444B1B794C490B445360FFF7B7FB10BDD9
:401AC000404A5278013A0A2A00F2CF80DFE812F04C00CD009800CD000B00CD00CD00CD001300CD003000374B9B78DBB23F4A1370FFF75AFA10BD334B9B7803F0FF041BB181
:401B0000601EC0B2FFF7C0FC04B110B9002C40F0AE80344B1B78DBB29C4206D0314B1C700120334B1870FFF771FDFFF73DFA10BDFFF7E8FE002800F09C80224A1379DBB286
:401B40001279D2B22B490A702B4AD25CD2B22649CB5CDBB29A4204D00122254B1A70FFF7A7FCFFF721FA10BD03F00303012B17D04BB1022B7FD1134B9B7813F0FF0F7CD186
:401B8000FFF76CFE10BD0F4B9B78DBB2012B76D1134A137803F0FD031370FFF705FA10BD084B1B79DBB2012B6BD8064B98781B79DBB21249CA5C22EA0002CA54FFF7F4F976
:401BC00010BD00BF006000402882FF1F9022000074230000B882FF1F4482FF1FF881FF1F4182FF1F3F82FF1FB082FF1F3E82FF1F3C82FF1F3482FF1F2482FF1FB482FF1F1F
:401C000003F00303012B17D04BB1022B3BD1224B9B7813F0FF0F38D1FFF7EEFD10BD1E4B9B78DBB2012B32D11C4A137843F002031370FFF7B9F910BD174B1B79DBB2012B13
:401C400027D8154B98781B79DBB21549CA5C22EA0002CA54FFF7A8F910BD002010BD002010BD002010BD002010BD002010BD002010BD002010BD002010BD002010BD00204B
:401C800010BD002010BD002010BD002010BD002010BD002010BD00BF006000404182FF1FB482FF1F044B1B7813F0800F01D0024B5B780020704700BF00600040024B1878AA
:401CC000C0F38010704700BF8F450040044A137803F0EF03000100F0100018431070704700510040014B1878C009704731510040014B1878C009704783450040024A1378DC
:401D000043F080031370704775650040024A137803F07F031370704775650040014B1870704700BF87650040014B1878704700BF67650040014B1860704700BF2465004022
:401D4000014B1868704700BF44650040014B1860704700BF0465004008B501E0FFF7F0FFFFF7E2FF10F0080FF8D108BD08B545F6BF50FFF7DFFF45F6BF50FFF7E7FF00F065
:401D8000FFF8064A137843F01003137000F0FCF8FFF7E2FF0120FFF7C1FF08BD9765004008B5054B1B7823B9FFF7E0FF0122024B1A70FFF7A3FF08BDFA81FF1F014B1B68E5
:401DC000D865704708ED00E04001C0B2014B1870704700BF07E400E08022014B1A60704700E100E08022014B1A60704780E100E010B50446FFF7F6FF2046FFF7DFFF0720B7
:401E0000FFF7E2FFFFF7E8FF10BD00BF014B1B681864704708ED00E04001C0B2014B1870704700BF00E400E00122014B1A60704700E100E00122014B1A60704780E100E088
:401E400010B50446FFF7F6FF2046FFF7DFFF0720FFF7E2FFFFF7E8FF10BD00BF024A137843F080031370704774640040024A137803F07F031370704774640040014B187076
:401E8000704700BF87640040014B1878704700BF67640040014B1860704700BF24640040014B1868704700BF44640040014B1860704700BF0464004008B501E0FFF7F0FF93
:401EC000FFF7E2FF10F0080FF8D108BD08B545F6BF50FFF7DFFF45F6BF50FFF7E7FF00F04FF8064A137843F01003137000F04CF8FFF7E2FF0120FFF7C1FF08BD97640040A8
:401F000008B5054B1B7823B9FFF7E0FF0122024B1A70FFF7A3FF08BDFB81FF1F014B1B685864704708ED00E04001C0B2014B1870704700BF01E400E00222014B1A607047E5
:401F400000E100E00222014B1A60704780E100E010B50446FFF7F6FF2046FFF7DFFF0720FFF7E2FFFFF7E8FF10BD00BF000000000230800803D000BF01380046FCD17047D4
:401F8000EFF3108072B6704780F31088704700BF08B5124B1B7803F00303012B02D0022B04D00FE00D4B1B79DBB20CE00B4B1B7903F07F0303EB43039A00094B1A44937A6A
:401FC000DBB200E00023074A1268D35C022B02D1FEF7FAFD08BD002008BD00BF006000404482FF1F3882FF1F014B1868704700BF6081FF1F0E4B70B51E460E4C0025E41A06
:40200000A410A54204D056F8253098470135F8E700F0BAF9084B094C1E46E41AA4100025A54204D056F8253098470135F8E770BD9423000094230000942300009C230000B1
:4020400010B5431E0A44914204D011F8014B03F8014FF8E710BD03460244934202D003F8011BFAE770470000194B10B51C68A36BD3B9182000F032F843F20E33A06303807F
:402080004AF6CD33438041F2342383804EF26D63C3804DF6EC630381052343810B23838101220023C0E90423A16B0A4C0B6948695C43094A02FB0040A3FB02230132034400
:4020C00043F10003C1E9042323F0004010BD00BF6081FF1F2DF451582D7F954C024B0146186800F003B800BF6081FF1F70B5CD1C25F0030508350C2D38BF0C25002D0646E4
:4021000001DBA94202D90C23336046E000F05CF8234B1C681A462146A1B10B685B1B0ED40B2B03D90B60CC18CD501EE08C420BBF63684B681360636018BF0C4615E00C46C3
:402140004968E9E7174C23681BB9304600F02CF820602946304600F027F8431C18D0C41C24F00304A0420DD12560304600F02DF804F10B00231D20F00700C31A0ED05A425E
:40218000E25070BD211A304600F00EF80130EBD10C233360304600F018F8002070BD00BF0082FF1FFC81FF1F38B5064C0023054608462360FEF7E6F9431C02D1236803B1EA
:4021C0002B6038BDDC82FF1F704770470000000048656C6C6F20576F726C640D0A0000000D0A0000205100401000405100403000C051004010000000014000100014014062
:40220000000800400140000A004C0140000200500140200030313233343536373839414243444546000000000100000030220000010000007423000000000000000000003E
:40224000010000004822000001000000302300000300000074220000000000000000000000000000000000000000000070220000020A000000008103080002000100820255
:4022800040000A000100030240000A0002030000040309042C0343007900700072006500730073002000530065006D00690063006F006E0064007500630074006F007200D4
:4022C000100355005300420055004100520054003803430044004300200043006F006D006D0075006E00690063006100740069006F006E00200049006E0074006500720008
:402300006600610063006500260343004400430020004400610074006100200049006E007400650072006600610063006500000009024300020101803209040000010202BA
:402340000103052400100104240202052406000105240100010705810308000A09040100020A0000040705820240000007050302400000001201000202000008B40432F2BC
:402380000100010280014300F8B500BFF8BC08BC9E4670474D00000001060000F8B500BFF8BC08BC9E46704729000000C0230000C880FF1FA0000000780100000000000078
:4023C0000000000007000000E082FF1F0000E02EC05D00001800000000366E0100C2010000000800C201000000080000A12000000000020000000000000000000000000015
:4024000000000000000000000000000000000000000000000000000086230000000000000000000000000000000000000000000000000000000000000000000000000000F3
:402440000000000000000000000000000000000000000000000000000081FF1F000000000000000000000000000000000000000000000000000000000000000000000000BD
:40248000000000000000000000000000000000000000000000000000000000000000000000000000000000000000000000000000000000000000000000000000000000001C
:4024C00000000000000000000000000000000000000000000000000000000000000000000000000000000000000000000000000000000000000000000000000000000000DC
:40250000000000000000000000000000000000000000000000000000000000000000000000000000000000000000000000000000000000000000000000000000000000009B
:40254000000000000000000000000000000000000000000000000000000000000000000000000000000000000000000000000000000000000000000000000000000000005B
:020000040003F7
:0200000480007A
:40000000024500400152004001640040016500400203014028040140070501403306014016070140020D0140281401400B150140331601401317014001190140064001407E
:4000400008410140024201400443014001450140024601400647014005480140014C014004500140025101401F037E027C40870D870DE208E602405449FF4AFF4BFF4F01EF
:40008000501852805A045B045D995F016040624064406540668068806A806C806E80C051C9FFCAFFCBFFCD83CE03CF01D018DA04DD09DF01E040E240E440E540E680E88094
:4000C000EA80EC80EE804101460148024C027002D011D218405149FF4AFF4BFF4D834E034F0150185A045D095F016040624064406540668068806A806C806E808E01AE019A
:40010000B601BE40C054C5ECC720C823C9FFCAFFCBFFCD83CE03CF01D018D401D604D804DA04DB04DD99DF01E040E240E440E540E680E880EA80EC80EE8002011002194096
:4001400041014601480249054C025101520159456380834095029E01A002C001C401D011D218D60BD801E208E602404649FF4AFF4BFF4F0150185A045D095F0160406240F3
:4001800064406540668068806A806C806E80C046C9FFCAFFCBFFCD83CE03CF01D018D280DA04DB04DD99DF01E040E240E440E540E680E880EA80EC80EE8042804680480850
:4001C0004C08740176809E80A008A401D081D224404649FF4AFF4BFF4D834E034F0150185A045D095F016040624064406540668068806A806C806E808201AA01B601BE4030
:40020000C046C5ECC702C813C9FFCAFFCBFFCD83CE03CF01D018D401D604D804DA04DB04DD99DF01E040E240E440E540E680E880EA80EC80EE8000021008194042804680F9
:40024000480849054C085008594560408040C008C402D081D224D60BD801EA02EA023381340237103B10CCF0CE108402871097109C029F11A780E210E6409F11A7808310FE
:400280009F11A780E22086419601A64009080A010E809601A640C20E8380A780AF01E620EA40AD0801010B0111011B0100AF010200F0F0000000000040000000000000005D
:4002C000C0000000000B0B000000000080000000000000000000000000000000000000000000000000000000000000000000000000000000000000000000000000000000A8
:4003000000000000000000000000000000000000000000000000000000000000000000000000000000000000000000000000000000000000000000000000000000000000BD
:40034000000000000000000000000000000000000000000000000000000000000000000000000000000000000000000000000000000000000000000000000000000000007D
:40038000000000000000000000000000000000000000000000000000000000000000000000000000000000000000000000000000000000000000000000000000000000003D
:4003C00000000000000000000000000000000000000000000000000000000000000000000000000000000000000000000000000000000000000000000000000000000000FD
:0200000490006A
:0400000000004005B7
:0200000490105A
:04000000BC90ACAF55
:0200000490303A
:0200000031D3FA
:0200000490402A
:4000000000000000000000000000000000000000000000000000000000000000000000000000000000000000000000000000000000000000000000000000000000000000C0
:400040000000000000000000000000000000000000000000000000000000000000000000000000000000000000000000000000000000000000000000000000000000000080
:400080000000000000000000000000000000000000000000000000000000000000000000000000000000000000000000000000000000000000000000000000000000000040
:4000C0000000000000000000000000000000000000000000000000000000000000000000000000000000000000000000000000000000000000000000000000000000000000
:0200000490501A
:0C00000000012E12306900012E20623C2D
:00000001FF